:100000000C9458010C9489010C9489010C94890179
:100010000C9489010C9489010C9489010C94890138
:100020000C9489010C949F040C949F040C949F04DD
:100030000C9489010C9489010C9489010C94890118
:100040000C9489010C9489010C9489010C94890108
:100050000C9489010C9489010C9489010C948F06ED
:100060000C9489010C9469040C943F040C9489014C
:100070000C9489010C9489010C9489010C948901D8
:100080000C9489010C9489010C9489010C948901C8
:100090000C9489010C9489010C9489010C948901B8
:1000A0000C9489010C9489010C9489010C948901A8
:1000B0000C9489010C9489010C9489010C94890198
:1000C0000C9489010C9489010C9489010C94890188
:1000D0000C9489010C9489010C9489010C94890178
:1000E0000C94890138053B052A052E053405720557
:1000F0003F05430549054D05510557055B055F055E
:100100007205650569056D050C94B5010C944305F0
:100110000C9457050C94DE020C9434050C94C40125
:100120000C9468030C943B050C946B0B0C945F05CA
:100130000C948B010C94E6010C9446030C94650519
:100140000C9469050C94C6020C9472050C94D801A9
:100150000C943F050C9449050C942E050C944D0508
:100160000C945B050C942E030C9451050C946B03BA
:100170000C94870B0C943E040C941E020C942A05DC
:100180000C946D050C9438050C946B020000210052
:10019000240027002A002D00300033000101000058
:1001A000040107010A0100000A0B02090C0D0E08E8
:1001B0000703040100000000000000000000000030
:1001C000000000000000000000000000000000002F
:1001D00000001211100000000000000000000000EC
:1001E00000000000000000000000000000002000EF
:1001F0002300260029002C002F00320000010000FF
:1002000003010601090100002200250028002B003F
:100210002E003100340002010000050108010B012D
:1002200005050505070508080808020202020A0A72
:100230000808040404040101010101010101030390
:10024000030303030303040707070C0C0C0C0C0C3B
:100250000C0C0202020206060606060606060B0B38
:100260000B0B0B0B0B0B0102102020080810204079
:10027000102040800201020108040201010204086A
:1002800010204080804020100804020180040201F8
:100290008040201008040201080402010102040841
:1002A000102040800102040810204080870B6B0B57
:1002B00011241FBECFEFD1E2DEBFCDBF00E00CBFE7
:1002C00024E0A0E1B3E001C01D92A135B207E1F73F
:1002D00013E0A0E0B2E0E6E9F9E100E00BBF02C004
:1002E00007900D92A031B107D9F711E0C7E5D1E031
:1002F00000E006C021970109802FFE010E94980CA2
:10030000C635D10780E00807A9F70E94D9060C94EA
:10031000B90C0C940000CF92DF92EF92FF920F93F2
:100320001F93CF93DF936C017A018B01C0E0D0E083
:10033000CE15DF0581F0D8016D918D01D601ED91CB
:10034000FC910190F081E02DC6011995892B11F0E7
:100350002196EECF7E01C701DF91CF911F910F91C2
:10036000FF90EF90DF90CF900895FC01538D448D66
:10037000252F30E0842F90E0821B930B541710F050
:10038000CF96089501970895FC01918D828D98175D
:1003900061F0828DDF01A80FB11D5D968C91928D69
:1003A0009F5F9F73928F90E008958FEF9FEF089566
:1003B000FC01918D828D981731F0828DE80FF11D2F
:1003C000858D90E008958FEF9FEF0895FC01918D4A
:1003D000228D892F90E0805C9F4F821B91098F7343
:1003E0009927089585E693E00E94E60121E0892B94
:1003F00009F420E0822F0895FC01848DDF01A80F0D
:10040000B11DA35ABF4F2C91848D90E001968F733C
:100410009927848FA689B7892C93A089B1898C915B
:10042000837080648C93938D848D981306C00288AA
:10043000F389E02D80818F7D80830895EF92FF9274
:100440000F931F93CF93DF93EC0181E0888F9B8DF7
:100450008C8D981305C0E889F989808185FD26C0B7
:10046000F62E0B8D10E00F5F1F4F0F731127E02E3C
:100470008C8DE8120CC00FB607FCFACFE889F98919
:10048000808185FFF5CFCE010E94FC01F1CF8B8DDD
:10049000FE01E80FF11DE35AFF4FF0829FB7F89479
:1004A0000B8FEA89FB89808180620AC09FB7F8942C
:1004B000EE89FF896083E889F9898081837080648F
:1004C00080839FBF81E090E0DF91CF911F910F91DA
:1004D000FF90EF900895CF93DF93EC01888D8823F0
:1004E000C9F0EA89FB89808185FD05C0A889B989A1
:1004F0008C9186FD0FC00FB607FCF5CF808185FF7C
:10050000F2CFA889B9898C9185FFEDCFCE010E94E9
:10051000FC01E7CFDF91CF91089580E090E0892B37
:1005200021F00E94F201811125C080E090E0892B2A
:1005300041F080E090E0892B21F00E9400008111C1
:100540001CC080E090E0892B41F080E090E0892B96
:1005500021F00E940000811113C080E090E0892BFF
:10056000A1F080E090E0892B81F00E9400008111D1
:100570000AC008950E940000D8CF0E940000E1CF79
:100580000E940000EACF0C940000089520915303CC
:10059000309154032817390771F4909151038091D9
:1005A0005203981741F0E0915103F0E0EF5EFC4FE9
:1005B000808190E008958FEF9FEF08951F93CF9370
:1005C000DF93DC015C968D919C915D97009739F4E7
:1005D00021E030E013963C932E9312973BC0519646
:1005E000ED91FC91529750962C915097322F309567
:1005F0001FB75E964C915E97742F727041FD6095A7
:10060000F8944081772311F0422B01C043234083AB
:10061000EC012197F1F748E0508160FF02C0522BB6
:1006200001C053235083EC012197F1F766954150A7
:1006300099F78081772319F08323808302C0282BC8
:1006400020831FBF5C968D919C915D970197F1F778
:1006500081E090E0DF91CF911F91089520915303A5
:10066000309154032817390771F480915203209177
:10067000510390E0805C9F4F821B910960E470E021
:100680000E94620C089580E090E008952091530349
:100690003091540328173907B9F490915103809190
:1006A0005203981789F0E0915103F0E0EF5EFC4FA0
:1006B00080812091510330E02F5F3F4F2F7333270C
:1006C0002093510390E008958FEF9FEF08950895D0
:1006D00080E090E0089580911003882339F084E24F
:1006E00092E09093470480934604089581E08093BC
:1006F00010039091440491110BC080934404109214
:1007000040041092410410924204109243048FC09E
:1007100080914504823009F450C018F4813041F0D2
:1007200076C0833009F457C0843009F462C06FC0CA
:1007300080913C04882369F082E08093450481E045
:1007400090914004911180E08093400410923C0409
:1007500070C080913D04882369F083E08093450454
:1007600081E090914104911180E0809341041092C6
:100770003D045FC080913E04882369F084E080934B
:10078000450481E090914204911180E080934204FD
:1007900010923E044EC080913F04882309F449C062
:1007A00085E08093450481E090914304911180E0BD
:1007B0008093430410923F043CC00E944C068CE49A
:1007C00092E00E94850561E080914004813009F04B
:1007D00060E086E029C00E944C068DE792E00E940E
:1007E000850561E080914104813009F060E087E097
:1007F0001BC00E944C068EEA92E00E94850561E0D3
:1008000080914204813009F060E088E00DC00E94D0
:100810004C068FED92E00E94850561E080914304D3
:10082000813009F060E089E00E94BC0581E080939E
:1008300045041092100308951F93CF93DF93D82F90
:10084000162FC42F61E08DE00E94BC05612F8DE161
:1008500094E00E94DE026D2F8DE194E00E94DE02A2
:100860006C2F8DE194E00E94DE0260E08DE0DF916C
:10087000CF911F910C94BC050E94B40C08951F9257
:100880000F920FB60F9211240BB60F922F933F9336
:100890004F935F936F937F938F939F93AF93BF9388
:1008A000EF93FF9385E693E00E94FC01FF91EF91A7
:1008B000BF91AF919F918F917F916F915F914F9178
:1008C0003F912F910F900BBE0F900FBE0F901F9076
:1008D00018951F920F920FB60F9211240BB60F921C
:1008E0002F938F939F93EF93FF93E0917503F09174
:1008F00076038081E0917B03F0917C0382FD12C03E
:10090000908180917E038F5F8F7320917F03821788
:1009100051F0E0917E03F0E0EB59FC4F958F80930E
:100920007E0301C08081FF91EF919F918F912F9164
:100930000F900BBE0F900FBE0F901F9018951F9237
:100940000F920FB60F9211240BB60F922F933F9375
:100950004F935F936F937F938F939F93AF93BF93C7
:10096000EF93FF93E0915303F0915403309709F410
:1009700051C0968DA685B785858591FF04C09C9151
:10098000892329F447C09C91892309F043C0A38996
:10099000B4899C918589809589238C9386899789D0
:1009A0000197F1F7608D718DA685B785558538E083
:1009B00020E0CB010197F1F7822F90E09595879584
:1009C000282F4C91452309F02068315091F7868DEE
:1009D00081FD20958091520390E001968F739927B5
:1009E00030915103381749F0A0915203B0E0AF5E47
:1009F000BC4F2C938093520303C0868D8160868FF9
:100A0000828D938D0197F1F7A389B4899C91858993
:100A1000892B8C93FF91EF91BF91AF919F918F9113
:100A20007F916F915F914F913F912F910F900BBEEE
:100A30000F900FBE0F901F90189590E0FC0131971A
:100A4000E231F10508F04EC08827EE58FF4F8F4F76
:100A50000C94980C809180008F7703C08091800067
:100A60008F7D80938000089580918000877FF9CFEB
:100A700084B58F7702C084B58F7D84BD0895809141
:100A8000B0008F7703C08091B0008F7D8093B0005D
:100A90000895809190008F7707C0809190008F7D9E
:100AA00003C080919000877F80939000089580918B
:100AB000A0008F7707C08091A0008F7D03C0809138
:100AC000A000877F8093A0000895809120018F77F8
:100AD00007C0809120018F7D03C080912001877F16
:100AE000809320010895009769F0FC010190002097
:100AF000E9F73197AF01481B590BBC0185E693E03C
:100B00000C948B0180E090E00895CF93DF930E94D6
:100B10007305EC0187E392E00E9473058C0F9D1F23
:100B2000DF91CF910895CF93DF93282F30E0F90123
:100B3000EA55FE4F8491F901EA59FD4FD491F9012C
:100B4000E05EFD4FC491CC2391F081110E941D0500
:100B5000EC2FF0E0EE0FFF1FE451FE4FA591B49192
:100B6000EC91ED2381E090E021F480E002C080E090
:100B700090E0DF91CF9108951F93CF93DF93282FBB
:100B800030E0F901EA55FE4F8491F901EA59FD4F31
:100B9000D491F901E05EFD4FC491CC23C1F0162F32
:100BA00081110E941D05EC2FF0E0EE0FFF1FEA5FA0
:100BB000FD4FA591B4919FB7F894111104C08C9189
:100BC000D095D82302C0EC91DE2BDC939FBFDF9140
:100BD000CF911F910895CF93DF9390E0FC01EA59E4
:100BE000FD4F2491FC01E05EFD4F8491882361F16B
:100BF00090E0880F991FFC01E457FE4FC591D491F6
:100C0000FC01EA5FFD4FA591B491611109C09FB746
:100C1000F8948881209582238883EC912E230BC041
:100C2000623061F49FB7F8948881322F3095832326
:100C30008883EC912E2B2C939FBF06C08FB7F8941E
:100C4000E8812E2B28838FBFDF91CF9108953FB786
:100C5000F89480914D0490914E04A0914F04B0916E
:100C6000500426B5A89B05C02F3F19F00196A11D81
:100C7000B11D3FBFBA2FA92F982F8827820F911D32
:100C8000A11DB11DBC01CD0142E0660F771F881F79
:100C9000991F4A95D1F708958F929F92AF92BF9274
:100CA000CF92DF92EF92FF920E9427064B015C01E8
:100CB00082E0C82ED12CE12CF12C0E942706DC0109
:100CC000CB0188199909AA09BB09883E9340A1055F
:100CD000B10598F321E0C21AD108E108F10888EEC5
:100CE000880E83E0981EA11CB11CC114D104E1043C
:100CF000F10419F7FF90EF90DF90CF90BF90AF9085
:100D00009F908F9008952FB7F89460914904709147
:100D10004A0480914B0490914C042FBF08951F9278
:100D20000F920FB60F9211242F933F938F939F939F
:100D3000AF93BF938091490490914A04A0914B04D2
:100D4000B0914C043091480423E0230F2D3720F458
:100D50000196A11DB11D05C026E8230F0296A11D15
:100D6000B11D209348048093490490934A04A093B2
:100D70004B04B0934C0480914D0490914E04A0918B
:100D80004F04B09150040196A11DB11D80934D04F4
:100D900090934E04A0934F04B0935004BF91AF9131
:100DA0009F918F913F912F910F900FBE0F901F90A9
:100DB0001895CF93DF93CDB7DEB7A1970FB6F89410
:100DC000DEBF0FBECDBF789484B5826084BD84B58C
:100DD000816084BD85B5826085BD85B5816085BD36
:100DE00080916E00816080936E00109281008091EE
:100DF0008100826080938100809181008160809376
:100E00008100809180008160809380008091B1009A
:100E100084608093B1008091B00081608093B000C5
:100E20008091910082608093910080919100816017
:100E300080939100809190008160809390008091D8
:100E4000A10082608093A1008091A10081608093C5
:100E5000A1008091A00081608093A0008091210179
:100E60008260809321018091210181608093210122
:100E70008091200181608093200180917A008460BC
:100E800080937A0080917A00826080937A008091CA
:100E90007A00816080937A0080917A0080688093E4
:100EA0007A001092C10060E082E00E94EB0560E0F1
:100EB00083E00E94EB0560E084E00E94EB0560E0C7
:100EC00085E00E94EB0560E08EE00E94EB0560E0AB
:100ED0008FE00E94EB0561E086E00E94EB0561E097
:100EE00087E00E94EB0561E088E00E94EB0561E08D
:100EF00089E00E94EB0561E08DE00E94EB0560E077
:100F00008DE00E94BC05E0917503F091760382E0CC
:100F10008083E0917103F09172031082E09173037A
:100F2000F09174038FEC808310927D03E09179033C
:100F3000F0917A0386E08083E0917703F091780363
:100F4000808180618083E0917703F09178038081D4
:100F500088608083E0917703F091780380818068D6
:100F60008083E0917703F091780380818F7D808387
:100F70008091130490911404892B21F180910B042A
:100F800090910C04019719F40E94830602C00E94FC
:100F900027066093150470931604809317049093AA
:100FA000180481E08093020410920D0410920E0444
:100FB00010920F041092100481E090E090931204BC
:100FC0008093110410923804109237041092360462
:100FD0001092350410923404109233048DE991E09C
:100FE00090933A04809339048091290496EF980FE6
:100FF000943048F02EEC280F243028F022EC280FF3
:10100000283008F072C02DEB30E030933404209388
:1010100033042BE931E030933604209335042CE27D
:1010200031E03093380420933704943060F02EEC94
:10103000280F243040F022EC280F283008F043C35A
:10104000A8E6B0E042C3A8E6B0E0E8E6F0E0208120
:10105000943048F09EEC980F943028F08E538830EE
:1010600010F484E001C081E0822B8C9380912904EC
:1010700096EF980F943058F02EEC280F243038F06B
:1010800022EC280F283030F020E030E005C02BE6BD
:1010900030E002C02DE630E030933104209330047C
:1010A000943010F49AEF0BC0823381F0833381F0D7
:1010B000843381F092EC980F983070F492EC980F92
:1010C00081E001C0880F9A95EAF707C088E005C063
:1010D00084E003C082E001C081E08093320480910B
:1010E000390490913A040197F1F780913704909177
:1010F0003804892B49F1E0915303F091540384E0C3
:10110000ED31F80709F1309739F0A389B4899C9142
:101110008589809589238C9380913B048E7F809371
:101120003B0410925203109251038DE194E090938E
:10113000540380935303E0913004F0913104908183
:1011400080913204892B808311E04AE0842E912C17
:10115000A12CB12C8DE194E00E942E0318161906E3
:101160000CF0D6C00E944C068CE292E00E948505ED
:1011700032E6E32E33E0F32E0E94830660932504CB
:101180007093260480932704909328048DE194E0C3
:101190000E94460397FF83C20E9483064090250465
:1011A000509026046090270470902804DC01CB0145
:1011B00084199509A609B70940902104509022048A
:1011C000609023047090240484159505A605B70546
:1011D000E8F280916203813009F059C18091630384
:1011E0008230F1F034F4803809F451C0813031F0AC
:1011F0004EC1833049F18430C9F149C18091640303
:10120000282F082E000C330B30935B0320935A03D6
:1012100061E0811101C060E06093400486E011C08C
:1012200080916403282F082E000C330B30935D034C
:1012300020935C0361E0811101C060E06093410490
:1012400087E00E94BC0523C180916403282F082EEB
:10125000000C330B30935F0320935E0361E0811138
:1012600001C060E06093420488E0EBCF80916403AA
:10127000282F082E000C330B30936103209360035A
:1012800061E0811101C060E0609343043FC0609160
:10129000640385E693E00E941E0287E392E00E94C9
:1012A000730580916403682F6170262F062E000C51
:1012B000330B30935B0320935A0381FBDD24D0F87A
:1012C000D0925C0310925D0382FBEE24E0F8E09282
:1012D0005E0310925F0383FBFF24F0F8F09260033B
:1012E000109261036093400486E00E94BC05D09296
:1012F00041046D2D87E00E94BC05E09242046E2DF2
:1013000088E00E94BC05F09243046F2D89E099CFDC
:1013100082E00E949305892B59F181E090E02091B1
:101320005A0330915B03232B11F080E090E09093FF
:101330005B0380935A0310933C040E944C068AE39B
:1013400092E00E9485050E944C0681E592E00E9491
:10135000850540915A0350915B036091550381E0EC
:101360000E941C0482E00E949305892BD9F78FC04C
:1013700083E00E949305892B59F181E090E0209150
:101380005C0330915D03232B11F080E090E090939B
:101390005D0380935C0310933D040E944C068BE632
:1013A00092E00E9485050E944C0682E892E00E942D
:1013B000850540915C0350915D036091550382E087
:1013C0000E941C0483E00E949305892BD9F75FC01B
:1013D00084E00E949305892B59F181E090E02091EF
:1013E0005E0330915F03232B11F080E090E0909337
:1013F0005F0380935E0310933E040E944C068CE9C9
:1014000092E00E9485050E944C0683EB92E00E94C8
:10141000850540915E0350915F036091550383E021
:101420000E941C0484E00E949305892BD9F72FC0E9
:1014300085E00E949305892B51F181E090E0209195
:10144000600330916103232B11F080E090E09093D2
:1014500061038093600310933F040E944C068DEC5F
:1014600092E00E9485050E944C0684EE92E00E9464
:10147000850540916003509161036091550384E0BC
:101480000E941C0485E00E949305892BD9F78FE008
:101490000E9493057C018EE00E949305EE0CFF1CD8
:1014A0008E0D9F1D909359038093580320915603EE
:1014B000309157038217930709F46EC08EEF92E0C4
:1014C0000E948505C0905803D09059030D2C000C44
:1014D000EE08FF08F7FE20C06DE285E693E00E946B
:1014E0001E0222273327A9012C193D094E095F0945
:1014F00019A2FE01B1967F01CA01B901A5019401AB
:101500000E94760C605DF70162937F012115310521
:101510004105510589F715C0A701960119A2CE0111
:1015200081967C01CA01B901A50194010E94760C43
:10153000605DF70162937F01211531054105510579
:1015400089F7C7010E94730587E392E00E94730543
:101550008EE00E949305892B61F08FE00E94930535
:10156000892B39F482E08093550340E050E062E03B
:10157000A6C08FE00E949305892B31F08EE00E9477
:101580009305892B09F495C08091580390915903D4
:1015900090935703809356030E944C068091020457
:1015A000882309F479C080910B0490910C04019771
:1015B00009F50E948306C0901504D0901604E090AF
:1015C0001704F0901804DC01CB018C199D09AE09B9
:1015D000BF09C0900304D0900404E0900504F0908B
:1015E00006048C159D05AE05BF0508F455C00E9484
:1015F00083061FC00E942706C0901504D0901604D1
:10160000E0901704F0901804DC01CB018C199D09BF
:10161000AE09BF09C0900304D0900404E090050413
:10162000F09006048C159D05AE05BF05A8F10E943B
:101630002706609315047093160480931704909303
:10164000180480910D0490910E04A0910F04B091A4
:1016500010044091070450910804609109047091AE
:101660000A04481B590B6A0B7B0B4130510561057D
:10167000710511F4109202040196A11DB11D809311
:101680000D0490930E04A0930F04B0931004E09106
:101690001304F091140419950E948D025BCDF7019B
:1016A00081937F01F5E6EF16F3E0FF0609F064CDC4
:1016B00090CD83E08093550340E050E063E080E804
:1016C0000E941C0461CFA0E0B0E0283008F4BDCC3B
:1016D000E0E0F0E0BCCC86E192E090931E048093C1
:1016E0001D0480915303909154038D51944071F4E3
:1016F000E0913004F0913104908180913204809522
:1017000089238083109254031092530308951092FA
:1017100068031092670388EE93E0A0E0B0E0809346
:10172000690390936A03A0936B03B0936C0324E066
:1017300032E0309366032093650325EC30E030936C
:1017400072032093710324EC30E0309374032093F0
:10175000730320EC30E0309376032093750321EC83
:1017600030E0309378032093770322EC30E030931D
:101770007A032093790326EC30E030937C032093A6
:101780007B0310927E0310927F03109280031092CD
:1017900081031092200410921F04809321049093DF
:1017A0002204A0932304B093240486E192E0909352
:1017B0001E0480931D04109234041092330410927E
:1017C00036041092350410923804109237041092A7
:1017D0003A041092390460913B046E7F6D7F6093F0
:1017E0003B046695617081E068278CE00E94BC052F
:1017F00061E08CE00E94EB05E2E7F2E0E491E09327
:101800002D04ECE2F2E0E491F0E0EE0FFF1FEA5F5E
:10181000FD4F8591949190932F0480932E0460E066
:101820008BE00E94EB0580913B0481FD04C061E0E8
:101830008BE00E94BC058BE080932904E1E7F2E095
:10184000E491E0932A04EBE2F2E0E491F0E0EE0FA1
:10185000FF1FE451FE4F8591949190932C04809347
:101860002B0410920C0410920B0480E49DE0A3E082
:10187000B0E08093030490930404A0930504B09314
:1018800006041092070410920804109209041092A2
:101890000A048BE693E0909314048093130410924F
:1018A000020410921504109216041092170410925C
:1018B000180410920D0410920E0410920F0410924E
:1018C0001004089597FB072E16F4009407D077FDB7
:1018D00009D00E94A00C07FC05D03EF4909581959C
:1018E0009F4F0895709561957F4F0895A1E21A2E3C
:1018F000AA1BBB1BFD010DC0AA1FBB1FEE1FFF1FB4
:10190000A217B307E407F50720F0A21BB30BE40B03
:10191000F50B661F771F881F991F1A9469F760954A
:101920007095809590959B01AC01BD01CF01089504
:10193000EE0FFF1F881F8BBF0790F691E02D1994C3
:10194000AA1BBB1B51E107C0AA1FBB1FA617B707E5
:1019500010F0A61BB70B881F991F5A95A9F7809501
:101960009095BC01CD01089581E090E0F8940C942D
:10197000B90C11E0C7E5D1E000E006C0802FFE0100
:101980000E94980C2196011DC835D10780E00807F8
:06199000A9F7F894FFCF57
:10199600000000001E028B01B5016B02E601C401C6
:1019A600D80100000000DE028B0168033E042E030E
:1019B6004603C6024F76657272756E00627566667C
:1019C600657252656164000D0A006368616E676541
:1019D600427574746F6E5374617465204C4544315E
:1019E60000496E74657272757074537265766963B8
:1019F600657348616E646C657231006368616E6719
:101A060065427574746F6E5374617465204C4544F9
:101A16003200496E746572727570745372657669B8
:101A260063657348616E646C657232006368616EEB
:101A36006765427574746F6E5374617465204C45A6
:101A4600443300496E7465727275707453726576AC
:101A56006963657348616E646C65723300636861BF
:101A66006E6765427574746F6E5374617465204C4D
:101A760045443400496E74657272757074537265AC
:101A8600766963657348616E646C65723400636879
:101A9600616E676520646970207377697463680096
:00000001FF
