:100000000C9463000C948B000C948B000C946E0386
:100010000C946E030C946E030C948B000C948B0068
:100020000C948B000C948B000C948B000C948B0024
:100030000C948B000C948B000C948B000C948B0014
:100040000C94A9050C948B000C943C030C9416039F
:100050000C948B000C948B000C948B000C948B00F4
:100060000C948B000C948B000000000024002700EF
:100070002A0000000008000201000003040700003D
:1000800000000000000000000000230026002900FE
:1000900000000000250028002B00040404040404D0
:1000A0000404020202020202030303030303010227
:1000B00004081020408001020408102001020408F6
:1000C0001020B009940911241FBECFEFD8E0DEBF85
:1000D000CDBF23E0A4E0B2E001C01D92A234B2077C
:1000E000E1F712E0A0E0B1E0EAEDF5E102C0059031
:1000F0000D92A430B107D9F710E0C2E6D0E004C0F9
:100100002197FE010E94D50AC136D107C9F70E9486
:10011000F3050C94E00A0C940000CF92DF92EF926A
:10012000FF920F931F93CF93DF936C017A018B01A2
:10013000C0E0D0E0CE15DF0581F0D8016D918D01D2
:10014000D601ED91FC910190F081E02DC601099559
:10015000892B11F02196EECF7E01C701DF91CF915F
:100160001F910F91FF90EF90DF90CF900895FC01C9
:10017000538D448D252F30E0842F90E0821B930B0C
:10018000541710F0CF96089501970895FC01918DB2
:10019000828D981761F0828DDF01A80FB11D5D96E9
:1001A0008C91928D9F5F9F73928F90E008958FEF57
:1001B0009FEF0895FC01918D828D981731F0828D0B
:1001C000E80FF11D858D90E008958FEF9FEF089562
:1001D000FC01918D228D892F90E0805C9F4F821BC6
:1001E00091098F739927089586E592E00E94E800AF
:1001F00021E0892B09F420E0822F0895FC01848DF1
:10020000DF01A80FB11DA35ABF4F2C91848D90E040
:1002100001968F739927848FA689B7892C93A0891B
:10022000B1898C91837080648C93938D848D9813A5
:1002300006C00288F389E02D80818F7D8083089538
:10024000EF92FF920F931F93CF93DF93EC0181E026
:10025000888F9B8D8C8D981305C0E889F9898081E2
:1002600085FD26C0F62E0B8D10E00F5F1F4F0F731C
:100270001127E02E8C8DE8120CC00FB607FCFACFC8
:10028000E889F989808185FFF5CFCE010E94FE00C3
:10029000F1CF8B8DFE01E80FF11DE35AFF4FF08285
:1002A0009FB7F8940B8FEA89FB89808180620AC02E
:1002B0009FB7F894EE89FF896083E889F989808186
:1002C0008370806480839FBF81E090E0DF91CF9155
:1002D0001F910F91FF90EF900895CF93DF93EC0162
:1002E000888D8823C9F0EA89FB89808185FD05C056
:1002F000A889B9898C9186FD0FC00FB607FCF5CF90
:10030000808185FFF2CFA889B9898C9185FFEDCFD7
:10031000CE010E94FE00E7CFDF91CF91089580E0EB
:1003200090E0892B29F00E94F40081110C940000C8
:10033000089520914702309148022817390771F437
:100340009091450280914602981741F0E091450254
:10035000F0E0EB5FFD4F808190E008958FEF9FEF1D
:1003600008951F93CF93DF93DC015C968D919C9150
:100370005D97009739F421E030E013963C932E937B
:1003800012973BC05196ED91FC91529750962C914B
:100390005097322F30951FB75E964C915E97742F11
:1003A000727041FD6095F8944081772311F0422BE3
:1003B00001C043234083EC012197F1F748E05081CD
:1003C00060FF02C0522B01C053235083EC012197E0
:1003D000F1F76695415099F78081772319F08323CF
:1003E000808302C0282B20831FBF5C968D919C9137
:1003F0005D970197F1F781E090E0DF91CF911F9138
:10040000089520914702309148022817390771F466
:10041000809146022091450290E0805C9F4F821BB4
:10042000910960E470E00E948B0A089580E090E0FA
:100430000895209147023091480228173907B9F4EE
:100440009091450280914602981789F0E09145020B
:10045000F0E0EB5FFD4F80812091450230E02F5F9F
:100460003F4F2F7333272093450290E008958FEF7D
:100470009FEF0895089580E090E008958091040230
:10048000882339F084E291E0909338038093370316
:10049000089581E0809304029091350391110BC07F
:1004A000809335031092310310923203109233037C
:1004B000109234038FC080913603823009F450C00B
:1004C00018F4813041F076C0833009F457C084308D
:1004D00009F462C06FC080912D03882369F082E027
:1004E0008093360381E090913103911180E08093F5
:1004F000310310922D0370C080912E03882369F080
:1005000083E08093360381E090913203911180E083
:100510008093320310922E035FC080912F038823B3
:1005200069F084E08093360381E090913303911168
:1005300080E08093330310922F034EC080913003EC
:10054000882309F449C085E08093360381E09091C7
:100550003403911180E080933403109230033CC047
:100560000E9466058FE491E00E94230461E080917F
:100570003103813009F060E086E029C00E94660501
:1005800080E891E00E94230461E080913203813091
:1005900009F060E087E01BC00E94660581EB91E0F6
:1005A0000E94230461E080913303813009F060E010
:1005B00088E00DC00E94660582EE91E00E9423044F
:1005C00061E080913403813009F060E089E00E94AD
:1005D000D60481E080933603109204020895CF93ED
:1005E000DF93909152029923D9F0C62FD82F61E062
:1005F0008DE00E94D60461E08EE093E00E94B1019C
:100600006D2F8EE093E00E94B1016C2F8EE093E09D
:100610000E94B10160E08DE0DF91CF910C94D6048F
:10062000DF91CF9108950E94DB0A08951F920F92E7
:100630000FB60F9211242F933F934F935F936F93B5
:100640007F938F939F93AF93BF93EF93FF9386E531
:1006500092E00E94FE00FF91EF91BF91AF919F91B8
:100660008F917F916F915F914F913F912F910F905B
:100670000FBE0F901F9018951F920F920FB60F92FA
:1006800011242F938F939F93EF93FF93E091660232
:10069000F09167028081E0916C02F0916D0282FD21
:1006A00012C0908180916F028F5F8F7320917002D2
:1006B000821751F0E0916F02F0E0EA5AFD4F958FFA
:1006C00080936F0201C08081FF91EF919F918F9184
:1006D0002F910F900FBE0F901F9018951F920F92A1
:1006E0000FB60F9211242F933F934F935F936F9305
:1006F0007F938F939F93AF93BF93EF93FF93E0917B
:100700004702F0914802309709F451C0968DA685B2
:10071000B785858591FF04C09C91892329F447C042
:100720009C91892309F043C0A389B4899C91858950
:10073000809589238C93868997890197F1F7608D3D
:10074000718DA685B785558538E020E0CB010197EE
:10075000F1F7822F90E095958795282F4C914523AE
:1007600009F02068315091F7868D81FD20958091A8
:10077000460290E001968F73992730914502381711
:1007800049F0A0914602B0E0AB5FBD4F2C9380933F
:10079000460203C0868D8160868F828D938D01977E
:1007A000F1F7A389B4899C918589892B8C93FF915A
:1007B000EF91BF91AF919F918F917F916F915F91D9
:1007C0004F913F912F910F900FBE0F901F90189552
:1007D000833081F028F4813099F08230A1F00895BF
:1007E0008730A9F08830B9F08430D1F4809180004E
:1007F0008F7D03C0809180008F7780938000089563
:1008000084B58F7702C084B58F7D84BD08958091B3
:10081000B0008F7703C08091B0008F7D8093B000CF
:100820000895009769F0FC0101900020E9F73197E5
:10083000AF01481B590BBC0186E592E00C948D007A
:1008400080E090E00895CF93DF930E941104EC01C3
:1008500081E092E00E9411048C0F9D1FDF91CF91E7
:1008600008958F929F92AF92BF92CF92DF92EF92B4
:10087000FF920F931F93CF93DF93CDB7DEB7A1976E
:100880000FB6F894DEBF0FBECDBF6C01990FEE0816
:10089000FF08F7FE2BC06DE286E592E00E94200182
:1008A0008C0122273327A9012C193D094E095F0924
:1008B00019A2CE0181967C019AE0892E912CA12C5F
:1008C000B12CCA01B901A50194010E949F0A605D83
:1008D000F70162937F01211531054105510589F723
:1008E000CF010E941104080F191F1EC0A701960115
:1008F00019A28E010F5D1F4F8AE0C82ED12CE12C6A
:10090000F12CCA01B901A70196010E949F0A605DFE
:10091000F80162938F01211531054105510589F7D1
:10092000CF010E9411048C0181E092E00E94110429
:10093000800F911FA1960FB6F894DEBF0FBECDBFFA
:10094000DF91CF911F910F91FF90EF90DF90CF90AB
:10095000BF90AF909F908F900895CF93DF93282FF3
:1009600030E0F901EE58FF4F8491F901E255FF4F55
:10097000D491F901E656FF4FC491CC2391F0811137
:100980000E94E803EC2FF0E0EE0FFF1FEA57FF4F45
:10099000A591B491EC91ED2381E090E021F480E009
:1009A00002C080E090E0DF91CF9108951F93CF9334
:1009B000DF93282F30E0F901EE58FF4F8491F901C1
:1009C000E255FF4FD491F901E656FF4FC491CC2375
:1009D000C1F0162F81110E94E803EC2FF0E0EE0F1A
:1009E000FF1FE057FF4FA591B4919FB7F8941111E5
:1009F00004C08C91D095D82302C0EC91DE2BDC93FF
:100A00009FBFDF91CF911F910895CF93DF9390E027
:100A1000FC01E255FF4F2491FC01E656FF4F849103
:100A2000882361F190E0880F991FFC01E859FF4F7E
:100A3000C591D491FC01E057FF4FA591B49161118C
:100A400009C09FB7F8948881209582238883EC9110
:100A50002E230BC0623061F49FB7F8948881322F47
:100A6000309583238883EC912E2B2C939FBF06C057
:100A70008FB7F894E8812E2B28838FBFDF91CF9119
:100A800008953FB7F89480913E0390913F03A09161
:100A90004003B091410326B5A89B05C02F3F19F034
:100AA0000196A11DB11D3FBFBA2FA92F982F8827EE
:100AB000820F911DA11DB11DBC01CD0142E0660F49
:100AC000771F881F991F4A95D1F708958F929F929B
:100AD000AF92BF92CF92DF92EF92FF920E944105B8
:100AE0004B015C0182E0C82ED12CE12CF12C0E943C
:100AF0004105DC01CB0188199909AA09BB09883E87
:100B00009340A105B10598F321E0C21AD108E1088C
:100B1000F10888EE880E83E0981EA11CB11CC11458
:100B2000D104E104F10419F7FF90EF90DF90CF902A
:100B3000BF90AF909F908F9008952FB7F8946091D9
:100B40003A0370913B0380913C0390913D032FBF8A
:100B500008951F920F920FB60F9211242F933F9377
:100B60008F939F93AF93BF9380913A0390913B03F0
:100B7000A0913C03B0913D033091390323E0230F52
:100B80002D3720F40196A11DB11D05C026E8230FC5
:100B90000296A11DB11D2093390380933A039093CF
:100BA0003B03A0933C03B0933D0380913E0390919F
:100BB0003F03A0914003B09141030196A11DB11DD7
:100BC00080933E0390933F03A0934003B09341036F
:100BD000BF91AF919F918F913F912F910F900FBE39
:100BE0000F901F901895789484B5826084BD84B569
:100BF000816084BD85B5826085BD85B5816085BD18
:100C000080916E00816080936E00109281008091CF
:100C10008100826080938100809181008160809357
:100C20008100809180008160809380008091B1007C
:100C300084608093B1008091B00081608093B000A7
:100C400080917A00846080937A0080917A0082603B
:100C500080937A0080917A00816080937A008091FD
:100C60007A00806880937A001092C10060E082E090
:100C70000E94050560E083E00E94050560E084E0D5
:100C80000E94050560E085E00E94050561E086E0C0
:100C90000E94050561E087E00E94050561E088E0AB
:100CA0000E94050561E089E00E94050561E08DE094
:100CB0000E94050560E08DE00E94D604E091660286
:100CC000F091670282E08083E0916202F09163021A
:100CD0001082E0916402F09165028FEC80831092A3
:100CE0006E02E0916A02F0916B0286E08083E091EF
:100CF0006802F0916902808180618083E0916802DE
:100D0000F0916902808188608083E0916802F091AF
:100D10006902808180688083E0916802F0916902B5
:100D200080818F7D80838091040390910503892BBE
:100D300021F18091FC029091FD02019719F40E942B
:100D40009D0502C00E94410560930603709307034E
:100D5000809308039093090381E08093F30210923B
:100D6000FE021092FF02109200031092010381E034
:100D700090E0909303038093020310922903109252
:100D80002803109227031092260310922503109235
:100D900024038DE991E090932B0380932A03909193
:100DA0001A03963108F058C02DEB30E0309325033C
:100DB000209324032BE931E030932703209326036B
:100DC0002CE231E0309329032093280340916800FE
:100DD000983058F031E09E3008F430E021E0822F66
:100DE00001C0880F3A95EAF701C084E0842B809314
:100DF0006800983038F09E3040F0963148F020E09E
:100E000030E008C02DE630E005C02BE630E002C03F
:100E10002CE630E03093220320932103983030F405
:100E200081E001C0880F9A95EAF70EC0292F30E0C3
:100E30009E3018F42850310902C02E50310981E04B
:100E400001C0880F2A95EAF78093230380912A0333
:100E500090912B030197F1F780912803909129033A
:100E6000892B49F1E0914702F091480283E0EE308E
:100E7000F80709F1309739F0A389B4899C918589E5
:100E8000809589238C9380912C038E7F80932C03F3
:100E900010924602109245028EE093E09093480231
:100EA00080934702E0912103F09122039081809189
:100EB0002303892B8083C1E086E5E82E82E0F82EAB
:100EC0008EE093E00E940102181619060CF0DBC0B8
:100ED0000E9466058CE291E00E94230403E512E083
:100EE0000E949D0560931603709317038093180367
:100EF000909319038EE093E00E94190297FF0CC2B1
:100F00000E949D058090160390901703A0901803EF
:100F1000B0901903DC01CB0188199909AA09BB0912
:100F20008090120390901303A0901403B0901503C7
:100F300088159905AA05BB05E8F280915302082E91
:100F4000000C990B0E94310480915302823009F009
:100F500097C0C0935202809154028038A9F587E36C
:100F600091E00E94230401E010E08091310381119F
:100F700002C000E010E080913203811103C080E0E4
:100F800090E002C082E090E0080F191F80913303C7
:100F9000811103C080E090E002C084E090E0080F7F
:100FA000191F80913403811103C080E090E002C0DA
:100FB00088E090E0080F191FC8010E943104B801B1
:100FC00080E80E94EF0225C1082E000C990B0E94B8
:100FD0003104809154028230D9F01CF4813031F018
:100FE00018C1833049F18430C9F113C18091550291
:100FF000282F082E000C330B30934B0220934A020B
:1010000061E0811101C060E06093310386E011C0AE
:1010100080915502282F082E000C330B30934D027F
:1010200020934C0261E0811101C060E060933203C3
:1010300087E00E94D604EDC080915502282F082E2B
:10104000000C330B30934F0220934E0261E081116C
:1010500001C060E06093330388E0EBCF80915502DC
:10106000282F082E000C330B30935102209350028E
:1010700061E0811101C060E06093340389E0D9CF61
:1010800010925202C6C082E00E94AD04892B61F129
:1010900081E090E020914A0230914B02232B11F025
:1010A00080E090E090934B0280934A02C0932D031E
:1010B0000E9466058DE391E00E9423040E9466056C
:1010C000C093490284E591E00E94230460914A02A2
:1010D00070914B02809149020E94EF0282E00E94CF
:1010E000AD04892BD9F795C083E00E94AD04892B0C
:1010F00069F181E090E020914C0230914D02232B68
:1011000011F080E090E090934D0280934C02C093E8
:101110002E030E9466058EE691E00E9423040E9441
:10112000660582E08093490285E891E00E942304ED
:1011300060914C0270914D02809149020E94EF0231
:1011400083E00E94AD04892BD9F763C084E00E943C
:10115000AD04892B69F181E090E020914E0230913D
:101160004F02232B11F080E090E090934F02809388
:101170004E02C0932F030E9466058FE991E00E9402
:1011800023040E94660583E08093490286EB91E088
:101190000E94230460914E0270914F028091490297
:1011A0000E94EF0284E00E94AD04892BD9F731C080
:1011B00085E00E94AD04892B61F181E090E02091EF
:1011C000500230915102232B11F080E090E0909377
:1011D000510280935002C09330030E94660580ED57
:1011E00091E00E9423040E94660584E080934902F6
:1011F00087EE91E00E9423046091500270915102A9
:10120000809149020E94EF0285E00E94AD04892B83
:10121000D9F70E9466058091F302882309F479C00A
:101220008091FC029091FD02019709F50E949D05B5
:1012300000910603109107032091080330910903E0
:10124000DC01CB01801B910BA20BB30B0091F402CC
:101250001091F5022091F6023091F7028017910764
:10126000A207B30708F455C00E949D051FC00E9445
:101270004105009106031091070320910803309166
:101280000903DC01CB01801B910BA20BB30B009176
:10129000F4021091F5022091F6023091F7028017C6
:1012A0009107A207B307A8F10E94410560930603C6
:1012B0007093070380930803909309038091FE02C3
:1012C0009091FF02A0910003B09101034091F802B8
:1012D0005091F9026091FA027091FB02481B590B80
:1012E0006A0B7B0B413051056105710511F41092B9
:1012F000F3020196A11DB11D8093FE029093FF029F
:10130000A0930003B0930103E0910403F09105035F
:1013100009950E948F01D4CDF80181938F01EE16BB
:10132000FF0609F0DDCD09CE86E191E090930F0331
:1013300080930E0380914702909148028E50934013
:1013400071F4E0912103F0912203908180912303B5
:101350008095892380831092480210924702089555
:10136000109259021092580288EE93E0A0E0B0E08B
:1013700080935A0290935B02A0935C02B0935D024B
:1013800024E031E0309357022093560225EC30E000
:10139000309363022093620224EC30E030936502C4
:1013A0002093640220EC30E03093670220936602C1
:1013B00021EC30E0309369022093680222EC30E0A7
:1013C00030936B0220936A0226EC30E030936D027A
:1013D00020936C0210926F021092700210927102B0
:1013E0001092720210921103109210038093120354
:1013F00090931303A0931403B093150386E191E037
:1014000090930F0380930E031092250310922403F0
:10141000109227031092260310922903109228039A
:1014200010922B0310922A0360912C036E7F6D7F24
:1014300060932C036695617081E068278CE00E94C0
:10144000D60461E08CE00E940505EAEBF0E0E4914F
:10145000E0931E03E6EAF0E0E491F0E0EE0FFF1FF8
:10146000E057FF4F859194919093200380931F0341
:1014700060E08BE00E94050580912C0381FD04C093
:1014800061E08BE00E94D6048BE080931A03E9EBC5
:10149000F0E0E491E0931B03E5EAF0E0E491F0E092
:1014A000EE0FFF1FEA57FF4F8591949190931D0314
:1014B00080931C031092FD021092FC0280E49DE0D8
:1014C000A3E0B0E08093F4029093F502A093F602BB
:1014D000B093F7021092F8021092F9021092FA02F9
:1014E0001092FB028EE392E0909305038093040335
:1014F0001092F30210920603109207031092080351
:10150000109209031092FE021092FF021092000343
:1015100010920103089597FB072E16F4009407D04C
:1015200077FD09D00E94C10A07FC05D03EF49095D2
:1015300081959F4F0895709561957F4F0895A1E221
:101540001A2EAA1BBB1BFD010DC0AA1FBB1FEE1F3D
:10155000FF1FA217B307E407F50720F0A21BB30B88
:10156000E40BF50B661F771F881F991F1A9469F704
:1015700060957095809590959B01AC01BD01CF0160
:101580000895AA1BBB1B51E107C0AA1FBB1FA617CA
:10159000B70710F0A61BB70B881F991F5A95A9F71C
:1015A00080959095BC01CD010895EE0FFF1F059029
:1015B000F491E02D099481E090E0F8940C94E00A15
:1015C00010E0C2E6D0E004C0FE010E94D50A2196D8
:0A15D000C336D107C9F7F894FFCF26
:1015DA000000000020018D00B7006D01E800C60080
:1015EA00DA0000000000B1018D003B021503010280
:1015FA00190299014F76657272756E006275666698
:10160A006572526561640073616C616D0063686143
:10161A006E6765427574746F6E5374617465204C9D
:10162A0045443100496E74657272757074537265FF
:10163A00766963657348616E646C657231006368CC
:10164A00616E6765427574746F6E53746174652058
:10165A004C45443200496E746572727570745372E7
:10166A0065766963657348616E646C65723200639E
:10167A0068616E6765427574746F6E5374617465E0
:10168A00204C45443300496E746572727570745308
:10169A007265766963657348616E646C657233005E
:1016AA006368616E6765427574746F6E53746174B2
:1016BA0065204C45443400496E74657272757074C5
:1016CA00537265766963657348616E646C657234DA
:0416DA00000D0A00F5
:00000001FF
